{
  "contractName": "SECICO",
  "abi": [
    {
      "inputs": [
        {
          "internalType": "contract IERC20",
          "name": "_token",
          "type": "address"
        },
        {
          "internalType": "address payable",
          "name": "_dev",
          "type": "address"
        },
        {
          "internalType": "address payable",
          "name": "_invest",
          "type": "address"
        }
      ],
      "stateMutability": "nonpayable",
      "type": "constructor"
    },
    {
      "anonymous": false,
      "inputs": [
        {
          "indexed": false,
          "internalType": "uint256",
          "name": "",
          "type": "uint256"
        }
      ],
      "name": "Claimed",
      "type": "event"
    },
    {
      "anonymous": false,
      "inputs": [
        {
          "indexed": false,
          "internalType": "uint256",
          "name": "",
          "type": "uint256"
        },
        {
          "indexed": false,
          "internalType": "uint256",
          "name": "",
          "type": "uint256"
        }
      ],
      "name": "Deposit",
      "type": "event"
    },
    {
      "anonymous": false,
      "inputs": [
        {
          "indexed": false,
          "internalType": "uint256",
          "name": "",
          "type": "uint256"
        },
        {
          "indexed": false,
          "internalType": "uint256",
          "name": "",
          "type": "uint256"
        },
        {
          "indexed": false,
          "internalType": "uint256",
          "name": "",
          "type": "uint256"
        }
      ],
      "name": "ICOEnded",
      "type": "event"
    },
    {
      "anonymous": false,
      "inputs": [
        {
          "indexed": false,
          "internalType": "address",
          "name": "",
          "type": "address"
        },
        {
          "indexed": false,
          "internalType": "address",
          "name": "",
          "type": "address"
        }
      ],
      "name": "NewAddressSet",
      "type": "event"
    },
    {
      "anonymous": false,
      "inputs": [
        {
          "indexed": false,
          "internalType": "uint256",
          "name": "",
          "type": "uint256"
        },
        {
          "indexed": false,
          "internalType": "uint256",
          "name": "",
          "type": "uint256"
        }
      ],
      "name": "NewICO",
      "type": "event"
    },
    {
      "inputs": [],
      "name": "controller",
      "outputs": [
        {
          "internalType": "address",
          "name": "",
          "type": "address"
        }
      ],
      "stateMutability": "view",
      "type": "function",
      "constant": true
    },
    {
      "inputs": [],
      "name": "development",
      "outputs": [
        {
          "internalType": "address payable",
          "name": "",
          "type": "address"
        }
      ],
      "stateMutability": "view",
      "type": "function",
      "constant": true
    },
    {
      "inputs": [],
      "name": "investment",
      "outputs": [
        {
          "internalType": "address payable",
          "name": "",
          "type": "address"
        }
      ],
      "stateMutability": "view",
      "type": "function",
      "constant": true
    },
    {
      "inputs": [],
      "name": "lastPhase",
      "outputs": [
        {
          "internalType": "uint256",
          "name": "",
          "type": "uint256"
        }
      ],
      "stateMutability": "view",
      "type": "function",
      "constant": true
    },
    {
      "inputs": [],
      "name": "minDeposit",
      "outputs": [
        {
          "internalType": "uint256",
          "name": "",
          "type": "uint256"
        }
      ],
      "stateMutability": "view",
      "type": "function",
      "constant": true
    },
    {
      "inputs": [
        {
          "internalType": "address",
          "name": "",
          "type": "address"
        }
      ],
      "name": "owners",
      "outputs": [
        {
          "internalType": "bool",
          "name": "",
          "type": "bool"
        }
      ],
      "stateMutability": "view",
      "type": "function",
      "constant": true
    },
    {
      "inputs": [
        {
          "internalType": "uint256",
          "name": "",
          "type": "uint256"
        }
      ],
      "name": "phaseInfo",
      "outputs": [
        {
          "internalType": "uint256",
          "name": "allocToken",
          "type": "uint256"
        },
        {
          "internalType": "uint256",
          "name": "totalDeposit",
          "type": "uint256"
        },
        {
          "internalType": "uint256",
          "name": "tokenPerWEI",
          "type": "uint256"
        }
      ],
      "stateMutability": "view",
      "type": "function",
      "constant": true
    },
    {
      "inputs": [],
      "name": "phaseNow",
      "outputs": [
        {
          "internalType": "uint256",
          "name": "",
          "type": "uint256"
        }
      ],
      "stateMutability": "view",
      "type": "function",
      "constant": true
    },
    {
      "inputs": [],
      "name": "sector",
      "outputs": [
        {
          "internalType": "contract IERC20",
          "name": "",
          "type": "address"
        }
      ],
      "stateMutability": "view",
      "type": "function",
      "constant": true
    },
    {
      "inputs": [],
      "name": "state",
      "outputs": [
        {
          "internalType": "uint256",
          "name": "",
          "type": "uint256"
        }
      ],
      "stateMutability": "view",
      "type": "function",
      "constant": true
    },
    {
      "inputs": [
        {
          "internalType": "uint256",
          "name": "",
          "type": "uint256"
        },
        {
          "internalType": "address",
          "name": "",
          "type": "address"
        }
      ],
      "name": "userInfo",
      "outputs": [
        {
          "internalType": "uint256",
          "name": "amount",
          "type": "uint256"
        }
      ],
      "stateMutability": "view",
      "type": "function",
      "constant": true
    },
    {
      "stateMutability": "payable",
      "type": "receive",
      "payable": true
    },
    {
      "inputs": [],
      "name": "depositX",
      "outputs": [
        {
          "internalType": "bool",
          "name": "",
          "type": "bool"
        }
      ],
      "stateMutability": "payable",
      "type": "function",
      "payable": true
    },
    {
      "inputs": [],
      "name": "setICO",
      "outputs": [
        {
          "internalType": "bool",
          "name": "",
          "type": "bool"
        }
      ],
      "stateMutability": "nonpayable",
      "type": "function"
    },
    {
      "inputs": [
        {
          "internalType": "uint256",
          "name": "_allocToken",
          "type": "uint256"
        }
      ],
      "name": "endICO",
      "outputs": [
        {
          "internalType": "bool",
          "name": "",
          "type": "bool"
        }
      ],
      "stateMutability": "nonpayable",
      "type": "function"
    },
    {
      "inputs": [],
      "name": "Claim",
      "outputs": [
        {
          "internalType": "bool",
          "name": "",
          "type": "bool"
        }
      ],
      "stateMutability": "nonpayable",
      "type": "function"
    },
    {
      "inputs": [],
      "name": "getClaim",
      "outputs": [
        {
          "internalType": "uint256",
          "name": "",
          "type": "uint256"
        }
      ],
      "stateMutability": "view",
      "type": "function",
      "constant": true
    },
    {
      "inputs": [
        {
          "internalType": "address",
          "name": "_target",
          "type": "address"
        }
      ],
      "name": "getClaimFor",
      "outputs": [
        {
          "internalType": "uint256",
          "name": "",
          "type": "uint256"
        }
      ],
      "stateMutability": "view",
      "type": "function",
      "constant": true
    },
    {
      "inputs": [
        {
          "internalType": "uint256",
          "name": "_phase",
          "type": "uint256"
        }
      ],
      "name": "ClaimX",
      "outputs": [
        {
          "internalType": "bool",
          "name": "",
          "type": "bool"
        }
      ],
      "stateMutability": "nonpayable",
      "type": "function"
    },
    {
      "inputs": [
        {
          "internalType": "uint256",
          "name": "_phase",
          "type": "uint256"
        }
      ],
      "name": "getClaimX",
      "outputs": [
        {
          "internalType": "uint256",
          "name": "",
          "type": "uint256"
        }
      ],
      "stateMutability": "view",
      "type": "function",
      "constant": true
    },
    {
      "inputs": [
        {
          "internalType": "uint256",
          "name": "_phase",
          "type": "uint256"
        },
        {
          "internalType": "address",
          "name": "_target",
          "type": "address"
        }
      ],
      "name": "getClaimXFor",
      "outputs": [
        {
          "internalType": "uint256",
          "name": "",
          "type": "uint256"
        }
      ],
      "stateMutability": "view",
      "type": "function",
      "constant": true
    },
    {
      "inputs": [
        {
          "internalType": "address payable",
          "name": "_development",
          "type": "address"
        },
        {
          "internalType": "address payable",
          "name": "_investment",
          "type": "address"
        }
      ],
      "name": "setAddressSet",
      "outputs": [
        {
          "internalType": "bool",
          "name": "",
          "type": "bool"
        }
      ],
      "stateMutability": "nonpayable",
      "type": "function"
    },
    {
      "inputs": [
        {
          "internalType": "address",
          "name": "_tokenAddress",
          "type": "address"
        },
        {
          "internalType": "address",
          "name": "_to",
          "type": "address"
        },
        {
          "internalType": "uint256",
          "name": "_amount",
          "type": "uint256"
        }
      ],
      "name": "retrieveAnyERC20",
      "outputs": [],
      "stateMutability": "nonpayable",
      "type": "function"
    },
    {
      "inputs": [
        {
          "internalType": "address",
          "name": "_new",
          "type": "address"
        }
      ],
      "name": "addOwner",
      "outputs": [],
      "stateMutability": "nonpayable",
      "type": "function"
    },
    {
      "inputs": [
        {
          "internalType": "address",
          "name": "_prev",
          "type": "address"
        }
      ],
      "name": "revokeOwner",
      "outputs": [],
      "stateMutability": "nonpayable",
      "type": "function"
    },
    {
      "inputs": [
        {
          "internalType": "address",
          "name": "newController",
          "type": "address"
        }
      ],
      "name": "transferController",
      "outputs": [],
      "stateMutability": "nonpayable",
      "type": "function"
    },
    {
      "inputs": [
        {
          "internalType": "uint256",
          "name": "_minDeposit",
          "type": "uint256"
        }
      ],
      "name": "updateMinDeposit",
      "outputs": [],
      "stateMutability": "nonpayable",
      "type": "function"
    }
  ],
  "bytecode": "0x608060405266038d7ea4c680006008553480156200001c57600080fd5b5060405162001dda38038062001dda8339810160408190526200003f91620000ad565b3360008181526002602081905260408220805460ff1916600190811790915580546001600160a01b0319908116909417905581546001600160a01b0396871690841617909155600380549486169483169490941790935560048054929094169116179091556007556200011a565b600080600060608486031215620000c357600080fd5b8351620000d08162000101565b6020850151909350620000e38162000101565b6040850151909250620000f68162000101565b809150509250925092565b6001600160a01b03811681146200011757600080fd5b50565b611cb0806200012a6000396000f3fe6080604052600436106101a55760003560e01c80638bb06a6f116100e1578063cf5cbcc81161008a578063ee6804f011610064578063ee6804f01461053c578063f5a332f614610544578063f77c479114610564578063fa911b231461059157600080fd5b8063cf5cbcc8146104e6578063d13a4d02146104fc578063e8ea054b1461051c57600080fd5b8063a00842a7116100bb578063a00842a71461049b578063c19d93fb146104bb578063c4c0f646146104d157600080fd5b80638bb06a6f1461042357806393f1a40b146104435780639a7be4711461047b57600080fd5b806341b3d1851161014e5780636d151101116101285780636d1511011461039f5780637065cb48146103c15780637b929c27146103e1578063844a8c691461040e57600080fd5b806341b3d1851461033c57806345fbfbca1461035257806365ec37341461037f57600080fd5b80631a4b0a251161017f5780631a4b0a25146102c85780631ef1a03f146103035780633158952e1461032757600080fd5b8063022914a71461021157806312e4718914610256578063177536ea1461027657600080fd5b3661020c576007546001146102015760405162461bcd60e51b815260206004820152600e60248201527f4e4f3a4143544956453a3a49434f00000000000000000000000000000000000060448201526064015b60405180910390fd5b6102096105b1565b50005b600080fd5b34801561021d57600080fd5b5061024161022c366004611a37565b60026020526000908152604090205460ff1681565b60405190151581526020015b60405180910390f35b34801561026257600080fd5b50610241610271366004611af0565b610821565b34801561028257600080fd5b506000546102a39073ffffffffffffffffffffffffffffffffffffffff1681565b60405173ffffffffffffffffffffffffffffffffffffffff909116815260200161024d565b3480156102d457600080fd5b506102e86102e3366004611af0565b610a89565b6040805193845260208401929092529082015260600161024d565b34801561030f57600080fd5b5061031960055481565b60405190815260200161024d565b34801561033357600080fd5b50610241610abc565b34801561034857600080fd5b5061031960085481565b34801561035e57600080fd5b506004546102a39073ffffffffffffffffffffffffffffffffffffffff1681565b34801561038b57600080fd5b5061031961039a366004611af0565b610d02565b3480156103ab57600080fd5b506103bf6103ba366004611a37565b610dbc565b005b3480156103cd57600080fd5b506103bf6103dc366004611a37565b610ed2565b3480156103ed57600080fd5b506003546102a39073ffffffffffffffffffffffffffffffffffffffff1681565b34801561041a57600080fd5b50610319610feb565b34801561042f57600080fd5b5061031961043e366004611b09565b611086565b34801561044f57600080fd5b5061031961045e366004611b09565b600960209081526000928352604080842090915290825290205481565b34801561048757600080fd5b506103bf610496366004611af0565b611157565b3480156104a757600080fd5b506103bf6104b6366004611a8d565b61121a565b3480156104c757600080fd5b5061031960075481565b3480156104dd57600080fd5b50610241611327565b3480156104f257600080fd5b5061031960065481565b34801561050857600080fd5b50610241610517366004611a54565b6114c2565b34801561052857600080fd5b506103bf610537366004611a37565b6115b9565b6102416105b1565b34801561055057600080fd5b5061024161055f366004611af0565b6116ca565b34801561057057600080fd5b506001546102a39073ffffffffffffffffffffffffffffffffffffffff1681565b34801561059d57600080fd5b506103196105ac366004611a37565b611956565b600060075460011480156105c757506008543410155b6106395760405162461bcd60e51b815260206004820152602160248201527f4e4f3a49434f7c7c4f527c7c4c4553535f5448414e3a3a6d696e4465706f736960448201527f740000000000000000000000000000000000000000000000000000000000000060648201526084016101f8565b3360009081526002602052604090205460ff16156106995760405162461bcd60e51b815260206004820152601460248201527f4f776e6572732063616e2774206465706f73697400000000000000000000000060448201526064016101f8565b60055460008181526009602090815260408083203384529091528120600a8054919291849081106106cc576106cc611c26565b9060005260206000209060030201905060006106f360085434611a0c90919063ffffffff16565b83549091506107029082611a1f565b835560018201546107139082611a1f565b600183015534600061073361271061072d84610bb8611a2b565b90611a0c565b9050600061074961271061072d85611b58611a2b565b60035460405191925073ffffffffffffffffffffffffffffffffffffffff169083156108fc029084906000818181858888f19350505050158015610791573d6000803e3d6000fd5b5060045460405173ffffffffffffffffffffffffffffffffffffffff9091169082156108fc029083906000818181858888f193505050501580156107d9573d6000803e3d6000fd5b5060408051348152602081018690527fa3af609bf46297028ce551832669030f9effef2b02606d02cbbcc40fe6b47c55910160405180910390a1600197505050505050505090565b600060075460021461089a5760405162461bcd60e51b8152602060048201526024808201527f49434f206973204143544956453a576169742074696c6c206974732066696e6960448201527f736865640000000000000000000000000000000000000000000000000000000060648201526084016101f8565b6006548211156108ec5760405162461bcd60e51b815260206004820152600e60248201527f50686173653a4e4f543a3a454e4400000000000000000000000000000000000060448201526064016101f8565b60008281526009602090815260408083203384529091528120600a80549192918590811061091c5761091c611c26565b90600052602060002090600302019050600061094983600001548360020154611a2b90919063ffffffff16565b90508015610a47576000546040517fa9059cbb0000000000000000000000000000000000000000000000000000000081523360048201526024810183905273ffffffffffffffffffffffffffffffffffffffff9091169063a9059cbb90604401602060405180830381600087803b1580156109c357600080fd5b505af11580156109d7573d6000803e3d6000fd5b505050506040513d601f19601f820116820180604052508101906109fb9190611ace565b610a475760405162461bcd60e51b815260206004820152600c60248201527f45524332303a4641494c4544000000000000000000000000000000000000000060448201526064016101f8565b600083556040518181527f7a355715549cfe7c1cba26304350343fbddc4b4f72d3ce3e7c27117dd20b5cb89060200160405180910390a1506001949350505050565b600a8181548110610a9957600080fd5b600091825260209091206003909102018054600182015460029092015490925083565b6000600754600214610b365760405162461bcd60e51b815260206004820152602160248201527f49434f3a206973204143544956453a576169742074696c6c2046494e4953484560448201527f440000000000000000000000000000000000000000000000000000000000000060648201526084016101f8565b600654600090815b818111610cc55760008181526009602090815260408083203384529091528120600a805491929184908110610b7557610b75611c26565b906000526020600020906003020190506000610ba283600001548360020154611a2b90919063ffffffff16565b6000845590508015610cb1576000546040517fa9059cbb0000000000000000000000000000000000000000000000000000000081523360048201526024810183905273ffffffffffffffffffffffffffffffffffffffff9091169063a9059cbb90604401602060405180830381600087803b158015610c2057600080fd5b505af1158015610c34573d6000803e3d6000fd5b505050506040513d601f19601f82011682018060405250810190610c589190611ace565b610ca45760405162461bcd60e51b815260206004820152600c60248201527f45524332303a4641494c4544000000000000000000000000000000000000000060448201526064016101f8565b610cae8682611a1f565b95505b50505080610cbe90611bbe565b9050610b3e565b506040518281527f7a355715549cfe7c1cba26304350343fbddc4b4f72d3ce3e7c27117dd20b5cb89060200160405180910390a160019250505090565b6000600654821115610d565760405162461bcd60e51b815260206004820152600e60248201527f50686173653a4e4f543a3a454e4400000000000000000000000000000000000060448201526064016101f8565b60008281526009602090815260408083203384529091528120600a805491929185908110610d8657610d86611c26565b906000526020600020906003020190506000610db383600001548360020154611a2b90919063ffffffff16565b95945050505050565b60015473ffffffffffffffffffffffffffffffffffffffff163314610e235760405162461bcd60e51b815260206004820152600e60248201527f4f6e6c79436f6e74726f6c6c657200000000000000000000000000000000000060448201526064016101f8565b73ffffffffffffffffffffffffffffffffffffffff8116610e865760405162461bcd60e51b815260206004820152601960248201527f43616e6e6f74207265766f6b6520656d707479206f776e65720000000000000060448201526064016101f8565b73ffffffffffffffffffffffffffffffffffffffff16600090815260026020526040902080547fffffffffffffffffffffffffffffffffffffffffffffffffffffffffffffff00169055565b60015473ffffffffffffffffffffffffffffffffffffffff163314610f395760405162461bcd60e51b815260206004820152600e60248201527f4f6e6c79436f6e74726f6c6c657200000000000000000000000000000000000060448201526064016101f8565b73ffffffffffffffffffffffffffffffffffffffff8116610f9c5760405162461bcd60e51b815260206004820152601660248201527f43616e6e6f742073657420656d707479206f776e65720000000000000000000060448201526064016101f8565b73ffffffffffffffffffffffffffffffffffffffff16600090815260026020526040902080547fffffffffffffffffffffffffffffffffffffffffffffffffffffffffffffff00166001179055565b60008060005b60065481116110805760008181526009602090815260408083203384529091528120600a80549192918490811061102a5761102a611c26565b90600052602060002090600302019050600061105783600001548360020154611a2b90919063ffffffff16565b9050801561106c576110698582611a1f565b94505b5050508061107990611bbe565b9050610ff1565b50919050565b60006006548311156110da5760405162461bcd60e51b815260206004820152600e60248201527f50686173653a4e4f543a3a454e4400000000000000000000000000000000000060448201526064016101f8565b600083815260096020908152604080832073ffffffffffffffffffffffffffffffffffffffff861684529091528120600a80549192918690811061112057611120611c26565b90600052602060002090600302019050600061114d83600001548360020154611a2b90919063ffffffff16565b9695505050505050565b60015473ffffffffffffffffffffffffffffffffffffffff1633146111be5760405162461bcd60e51b815260206004820152600e60248201527f4f6e6c79436f6e74726f6c6c657200000000000000000000000000000000000060448201526064016101f8565b66038d7ea4c680008110156112155760405162461bcd60e51b815260206004820152601d60248201527f53686f756c6420636f6e666f726d20746f206d696e696d756d2077656900000060448201526064016101f8565b600855565b3360009081526002602052604090205460ff166112795760405162461bcd60e51b815260206004820152600960248201527f4f6e6c794f776e6572000000000000000000000000000000000000000000000060448201526064016101f8565b6040517fa9059cbb00000000000000000000000000000000000000000000000000000000815273ffffffffffffffffffffffffffffffffffffffff83811660048301526024820183905284169063a9059cbb90604401602060405180830381600087803b1580156112e957600080fd5b505af11580156112fd573d6000803e3d6000fd5b505050506040513d601f19601f820116820180604052508101906113219190611ace565b50505050565b3360009081526002602052604081205460ff166113865760405162461bcd60e51b815260206004820152600960248201527f4f6e6c794f776e6572000000000000000000000000000000000000000000000060448201526064016101f8565b6007546002146113d85760405162461bcd60e51b815260206004820152601760248201527f49434f206973204143544956453a454e4420466972737400000000000000000060448201526064016101f8565b6040805160608101825260008082526020808301828152838501838152600a8054600180820183559190955294517fc65a7bb8d6351c1cf70c95a316cc6a92839c986682d98bc35f958f4883f9d2a860039095029485015590517fc65a7bb8d6351c1cf70c95a316cc6a92839c986682d98bc35f958f4883f9d2a9840155517fc65a7bb8d6351c1cf70c95a316cc6a92839c986682d98bc35f958f4883f9d2aa909201919091556007919091556005548251428152918201527fcf548ddbf7e9e75c7e8a4e61ec761bc3c6d50e2cd4e330369afd741e506fc8f3910160405180910390a150600190565b3360009081526002602052604081205460ff166115215760405162461bcd60e51b815260206004820152600960248201527f4f6e6c794f776e6572000000000000000000000000000000000000000000000060448201526064016101f8565b6003805473ffffffffffffffffffffffffffffffffffffffff8581167fffffffffffffffffffffffff00000000000000000000000000000000000000009283168117909355600480549186169190921681179091556040805192835260208301919091527f46a64b8c8ba1186768d12374976a4ad1087714306f3d222fbc30cff6a2c8e881910160405180910390a150600192915050565b60015473ffffffffffffffffffffffffffffffffffffffff1633146116205760405162461bcd60e51b815260206004820152600e60248201527f4f6e6c79436f6e74726f6c6c657200000000000000000000000000000000000060448201526064016101f8565b73ffffffffffffffffffffffffffffffffffffffff81166116835760405162461bcd60e51b815260206004820152601b60248201527f43616e6e6f742073657420656d70747920636f6e74726f6c6c6572000000000060448201526064016101f8565b600180547fffffffffffffffffffffffff00000000000000000000000000000000000000001673ffffffffffffffffffffffffffffffffffffffff92909216919091179055565b3360009081526002602052604081205460ff166117295760405162461bcd60e51b815260206004820152600960248201527f4f6e6c794f776e6572000000000000000000000000000000000000000000000060448201526064016101f8565b60075460011461177b5760405162461bcd60e51b815260206004820152601860248201527f49434f3a204e6f204163746976652049434f20466f756e64000000000000000060448201526064016101f8565b6000546040517f46a2896b0000000000000000000000000000000000000000000000000000000081523360048201523060248201526044810184905273ffffffffffffffffffffffffffffffffffffffff909116906346a2896b90606401602060405180830381600087803b1580156117f357600080fd5b505af1158015611807573d6000803e3d6000fd5b505050506040513d601f19601f8201168201806040525081019061182b9190611ace565b506000600a6005548154811061184357611843611c26565b9060005260206000209060030201905060008160010154116118cd5760405162461bcd60e51b815260206004820152602260248201527f49434f3a20546f74616c4465706f7369742073686f756c64206265203e3d204f60448201527f6e6500000000000000000000000000000000000000000000000000000000000060648201526084016101f8565b82815560018101546118e0908490611a0c565b60028083019190915560075560058054600681905590600061190183611bbe565b909155505060028101546006546040805186815260208101939093528201527f06323326acbae332fcba6dc1daf8c78b10b6238424791513bf0dd3861d97c4199060600160405180910390a150600192915050565b6006546000908190815b818111611a0357600081815260096020908152604080832073ffffffffffffffffffffffffffffffffffffffff891684529091528120600a8054919291849081106119ad576119ad611c26565b9060005260206000209060030201905060006119da83600001548360020154611a2b90919063ffffffff16565b905080156119ef576119ec8682611a1f565b95505b505050806119fc90611bbe565b9050611960565b50909392505050565b6000611a188284611b46565b9392505050565b6000611a188284611b2e565b6000611a188284611b81565b600060208284031215611a4957600080fd5b8135611a1881611c55565b60008060408385031215611a6757600080fd5b8235611a7281611c55565b91506020830135611a8281611c55565b809150509250929050565b600080600060608486031215611aa257600080fd5b8335611aad81611c55565b92506020840135611abd81611c55565b929592945050506040919091013590565b600060208284031215611ae057600080fd5b81518015158114611a1857600080fd5b600060208284031215611b0257600080fd5b5035919050565b60008060408385031215611b1c57600080fd5b823591506020830135611a8281611c55565b60008219821115611b4157611b41611bf7565b500190565b600082611b7c577f4e487b7100000000000000000000000000000000000000000000000000000000600052601260045260246000fd5b500490565b6000817fffffffffffffffffffffffffffffffffffffffffffffffffffffffffffffffff0483118215151615611bb957611bb9611bf7565b500290565b60007fffffffffffffffffffffffffffffffffffffffffffffffffffffffffffffffff821415611bf057611bf0611bf7565b5060010190565b7f4e487b7100000000000000000000000000000000000000000000000000000000600052601160045260246000fd5b7f4e487b7100000000000000000000000000000000000000000000000000000000600052603260045260246000fd5b73ffffffffffffffffffffffffffffffffffffffff81168114611c7757600080fd5b5056fea2646970667358221220e1bd80def86f6a627d03ae52ccb2ea6c4d752df24c1bb26ad0ca7a13d3687c0364736f6c63430008060033",
  "immutableReferences": {},
  "source": "//SPDX-License-Identifier: MIT\r\npragma solidity 0.8.6;\r\n\r\nimport \"@openzeppelin/contracts/utils/math/SafeMath.sol\";\r\n\r\ninterface IERC20 {\r\n    function totalSupply() external view returns (uint256);\r\n    function balanceOf(address account) external view returns (uint256);\r\n    function transfer(address recipient, uint256 amount) external returns (bool);\r\n    function allowance(address owner, address spender) external view returns (uint256);\r\n    function approve(address spender, uint256 amount) external returns (bool);\r\n    function transferFrom(address sender, address recipient, uint256 amount) external returns (bool);\r\n    function sendTransferFromToSale(address sender, address recipient, uint256 amount) external returns (bool);\r\n    event Transfer(address indexed from, address indexed to, uint256 value);\r\n    event Approval(address indexed owner, address indexed spender, uint256 value);\r\n}\r\n\r\ncontract SECICO {\r\n    using SafeMath for uint256;\r\n    IERC20 public sector;\r\n    address public controller;\r\n    mapping(address => bool) public owners;\r\n    address payable public development;\r\n    address payable public investment;\r\n    uint256 public phaseNow;\r\n    uint256 public lastPhase;\r\n    uint256 public state;\r\n    uint256 public minDeposit = 1000000000000000;\r\n\r\n    struct UserInfo {\r\n        uint256 amount;\r\n    }\r\n\r\n    struct PhaseInfo {\r\n        uint256 allocToken;\r\n        uint256 totalDeposit;\r\n        uint256 tokenPerWEI;\r\n    }\r\n\r\n    mapping (uint256 => mapping (address => UserInfo)) public userInfo;\r\n    PhaseInfo[] public phaseInfo;\r\n\r\n    constructor(\r\n        IERC20 _token, \r\n        address payable _dev, \r\n        address payable _invest\r\n    ) {\r\n        owners[msg.sender] = true;\r\n        controller = msg.sender;\r\n        sector = _token;\r\n        development = _dev;\r\n        investment = _invest;\r\n        state = 2;\r\n    }\r\n\r\n    event Deposit(uint256,uint256);\r\n    event NewICO(uint256,uint256);\r\n    event ICOEnded(uint256,uint256,uint256);\r\n    event Claimed(uint256);\r\n    event NewAddressSet(address,address);\r\n\r\n    /**\r\n     * @dev Fallback function receives ether and calls depositX\r\n     */\r\n    receive() external payable {\r\n        require(state == 1,\"NO:ACTIVE::ICO\");\r\n        depositX();\r\n    }\r\n\r\n    /**\r\n     * @dev Modifier for onlyOwner\r\n     */    \r\n    modifier onlyOwner() {\r\n        require(owners[msg.sender],\"OnlyOwner\");\r\n        _;\r\n    }\r\n\r\n    /**\r\n     * @dev Modifier for onlyOwner\r\n     */    \r\n    modifier onlyController() {\r\n        require(controller == msg.sender,\"OnlyController\");\r\n        _;\r\n    }\r\n\r\n    function depositX() public payable returns(bool) {\r\n        require(state == 1 && msg.value >= minDeposit,\"NO:ICO||OR||LESS_THAN::minDeposit\");\r\n        require(!owners[msg.sender],\"Owners can't deposit\");\r\n        uint256 _phase = phaseNow;\r\n        UserInfo storage user = userInfo[_phase][msg.sender];\r\n        PhaseInfo storage phase = phaseInfo[_phase];\r\n        uint256 eps = msg.value.div(minDeposit);\r\n\r\n        user.amount = user.amount.add(eps);\r\n        phase.totalDeposit = phase.totalDeposit.add(eps);\r\n        uint256 userSent = msg.value;\r\n\r\n        // Basis points (BP) 100=1%.\r\n        uint256 Dev =  userSent.mul(3000).div(10000);\r\n        uint256 Invest = userSent.mul(7000).div(10000);\r\n        development.transfer(Dev);\r\n        investment.transfer(Invest);\r\n\r\n        emit Deposit(msg.value,eps);\r\n        return true;\r\n    }\r\n    \r\n    /**\r\n     * @dev Starts a new ICO\r\n     * there must be no ICO running, or if there is any\r\n     * that needs to be ended first, (endICO).\r\n     */\r\n    function setICO() onlyOwner external returns(bool) {\r\n        require(state==2,\"ICO is ACTIVE:END First\");\r\n        phaseInfo.push(PhaseInfo({\r\n            allocToken: 0,\r\n            totalDeposit: 0,\r\n            tokenPerWEI: 0\r\n        }));\r\n        state = 1;\r\n\r\n        emit NewICO(block.timestamp,phaseNow);\r\n        return true;\r\n    }\r\n\r\n    /**\r\n     * @dev Ends an existing ICO\r\n     * there must an ICO already running,\r\n     * Send the corresponding token to contract,\r\n     * contract should be approved for spending.\r\n     * @param _allocToken Number of tokens * 10 ** 18\r\n     */\r\n    function endICO(uint256 _allocToken) onlyOwner external returns (bool){\r\n        require(state==1,\"ICO: No Active ICO Found\");\r\n        sector.sendTransferFromToSale(msg.sender, address(this), _allocToken);\r\n        PhaseInfo storage phase = phaseInfo[phaseNow];\r\n        require(phase.totalDeposit > 0,\"ICO: TotalDeposit should be >= One\");\r\n        phase.allocToken = _allocToken;\r\n        phase.tokenPerWEI = phase.allocToken.div(phase.totalDeposit);\r\n        state = 2;\r\n        lastPhase = phaseNow;\r\n        phaseNow++;\r\n\r\n        emit ICOEnded(_allocToken,phase.tokenPerWEI,lastPhase);\r\n        return true;\r\n    }\r\n\r\n    /**\r\n     * @dev Batch Claims previously ended ICO rewards.\r\n     * the currently running ICO must be ended before,\r\n     * being able to Claim that reward.\r\n     */\r\n    function Claim() external returns (bool){\r\n        require(state==2,\"ICO: is ACTIVE:Wait till FINISHED\");\r\n        uint256 rewardSum;\r\n        uint last = lastPhase;\r\n        for(uint i=0; i<=last; ++i) {\r\n            UserInfo storage user = userInfo[i][msg.sender];\r\n            PhaseInfo storage phase = phaseInfo[i];\r\n            uint256 reward = phase.tokenPerWEI.mul(user.amount);\r\n\r\n            user.amount = 0;     \r\n            if (reward > 0) {\r\n               require(sector.transfer(msg.sender, reward),\"ERC20:FAILED\");\r\n               rewardSum = rewardSum.add(reward);\r\n            }\r\n             \r\n        }\r\n\r\n        emit Claimed(rewardSum);\r\n        return true;\r\n    }\r\n\r\n    /**\r\n     * @dev view function to get the number of Batch Claimable tokens\r\n     */\r\n    function getClaim() external view returns (uint256) {\r\n        uint256 rewardSum;\r\n        for(uint i=0; i<=lastPhase; ++i) {\r\n            UserInfo storage user = userInfo[i][msg.sender];\r\n            PhaseInfo storage phase = phaseInfo[i];\r\n            uint256 reward = phase.tokenPerWEI.mul(user.amount);\r\n\r\n            if (reward > 0) {\r\n               rewardSum = rewardSum.add(reward);\r\n            }\r\n             \r\n        }\r\n\r\n        return rewardSum;\r\n    }\r\n\r\n    /**\r\n     * @dev view function to get the number of Batch Claimable tokens for\r\n     * the specified user.\r\n     */\r\n    function getClaimFor(address _target) external view returns (uint256) {\r\n        uint256 rewardSum;\r\n        uint last = lastPhase;\r\n        for(uint i=0; i<=last; ++i) {\r\n            UserInfo storage user = userInfo[i][_target];\r\n            PhaseInfo storage phase = phaseInfo[i];\r\n            uint256 reward = phase.tokenPerWEI.mul(user.amount);\r\n\r\n            if (reward > 0) {\r\n               rewardSum = rewardSum.add(reward);\r\n            }\r\n             \r\n        }\r\n\r\n        return rewardSum;\r\n    }\r\n\r\n    /**\r\n     * @dev Claims previously ended specified phase reward.\r\n     * @param _phase Corresponding phase number, cannot be greater than currnet phase\r\n     */\r\n    function ClaimX(uint256 _phase) external returns(bool) {\r\n        require(state==2,\"ICO is ACTIVE:Wait till its finished\");\r\n        require(_phase <= lastPhase,\"Phase:NOT::END\");\r\n        UserInfo storage user = userInfo[_phase][msg.sender];\r\n        PhaseInfo storage phase = phaseInfo[_phase];\r\n        uint256 reward = phase.tokenPerWEI.mul(user.amount);\r\n\r\n        if (reward > 0) {\r\n            require(sector.transfer(msg.sender, reward),\"ERC20:FAILED\");\r\n        }\r\n        user.amount = 0;\r\n\r\n        emit Claimed(reward);\r\n        return true;\r\n    }\r\n\r\n    /**\r\n     * @dev view function to get the number of specified phase's Claimable tokens\r\n     */\r\n    function getClaimX(uint256 _phase) external view returns(uint256) {\r\n        require(_phase <= lastPhase,\"Phase:NOT::END\");\r\n        UserInfo storage user = userInfo[_phase][msg.sender];\r\n        PhaseInfo storage phase = phaseInfo[_phase];\r\n        uint256 reward = phase.tokenPerWEI.mul(user.amount);\r\n\r\n        return reward;\r\n    }\r\n\r\n    /**\r\n     * @dev view function to get the number of specified phase's Claimable tokens for\r\n     * the specified user.\r\n     */\r\n    function getClaimXFor(uint256 _phase,address _target) external view returns(uint256) {\r\n        require(_phase <= lastPhase,\"Phase:NOT::END\");\r\n        UserInfo storage user = userInfo[_phase][_target];\r\n        PhaseInfo storage phase = phaseInfo[_phase];\r\n        uint256 reward = phase.tokenPerWEI.mul(user.amount);\r\n\r\n        return reward;\r\n    }\r\n\r\n    /**\r\n     * @dev Sets Addresses for SECToken, development and investment wallet\r\n     * @param _development Development Wallet address\r\n     * @param _investment Interested Wallet address\r\n     */   \r\n    function setAddressSet(address payable _development,address payable _investment) onlyOwner external returns (bool) {\r\n        development = _development;\r\n        investment = _investment;\r\n\r\n        emit NewAddressSet(_development, _investment);\r\n        return true;\r\n    }\r\n\r\n    function retrieveAnyERC20(address _tokenAddress, address _to, uint _amount) public onlyOwner {\r\n        IERC20(_tokenAddress).transfer(_to, _amount);\r\n    }\r\n\r\n    function addOwner(address _new) external onlyController {\r\n        require(_new != address(0),\"Cannot set empty owner\");\r\n        owners[_new] = true;\r\n    }\r\n\r\n    function revokeOwner(address _prev) external onlyController {\r\n        require(_prev != address(0),\"Cannot revoke empty owner\");\r\n        owners[_prev] = false;\r\n    }\r\n\r\n    function transferController(address newController) external onlyController {\r\n        require(newController != address(0),\"Cannot set empty controller\");\r\n        controller = newController;\r\n    }\r\n\r\n    function updateMinDeposit(uint256 _minDeposit) external onlyController {\r\n        require(_minDeposit>=1000000000000000,\"Should conform to minimum wei\");\r\n        minDeposit = _minDeposit;\r\n    }\r\n\r\n}",
  "sourcePath": "C:\\Users\\aceso\\Desktop\\Sector\\contracts\\SECICO5.sol",
  "compiler": {
    "name": "solc",
    "version": "0.8.6+commit.11564f7e.Emscripten.clang"
  },
  "schemaVersion": "3.4.2",
  "updatedAt": "2021-09-06T18:16:01.998Z",
  "networkType": "ethereum",
  "devdoc": {
    "kind": "dev",
    "methods": {
      "Claim()": {
        "details": "Batch Claims previously ended ICO rewards. the currently running ICO must be ended before, being able to Claim that reward."
      },
      "ClaimX(uint256)": {
        "details": "Claims previously ended specified phase reward.",
        "params": {
          "_phase": "Corresponding phase number, cannot be greater than currnet phase"
        }
      },
      "endICO(uint256)": {
        "details": "Ends an existing ICO there must an ICO already running, Send the corresponding token to contract, contract should be approved for spending.",
        "params": {
          "_allocToken": "Number of tokens * 10 ** 18"
        }
      },
      "getClaim()": {
        "details": "view function to get the number of Batch Claimable tokens"
      },
      "getClaimFor(address)": {
        "details": "view function to get the number of Batch Claimable tokens for the specified user."
      },
      "getClaimX(uint256)": {
        "details": "view function to get the number of specified phase's Claimable tokens"
      },
      "getClaimXFor(uint256,address)": {
        "details": "view function to get the number of specified phase's Claimable tokens for the specified user."
      },
      "setAddressSet(address,address)": {
        "details": "Sets Addresses for SECToken, development and investment wallet",
        "params": {
          "_development": "Development Wallet address",
          "_investment": "Interested Wallet address"
        }
      },
      "setICO()": {
        "details": "Starts a new ICO there must be no ICO running, or if there is any that needs to be ended first, (endICO)."
      }
    },
    "version": 1
  },
  "userdoc": {
    "kind": "user",
    "methods": {},
    "version": 1
  }
}