{
  "contractName": "Sector",
  "abi": [
    {
      "inputs": [
        {
          "internalType": "address payable",
          "name": "dev",
          "type": "address"
        }
      ],
      "stateMutability": "nonpayable",
      "type": "constructor"
    },
    {
      "anonymous": false,
      "inputs": [
        {
          "indexed": true,
          "internalType": "address",
          "name": "owner",
          "type": "address"
        },
        {
          "indexed": true,
          "internalType": "address",
          "name": "spender",
          "type": "address"
        },
        {
          "indexed": false,
          "internalType": "uint256",
          "name": "value",
          "type": "uint256"
        }
      ],
      "name": "Approval",
      "type": "event"
    },
    {
      "anonymous": false,
      "inputs": [
        {
          "indexed": true,
          "internalType": "address",
          "name": "to",
          "type": "address"
        },
        {
          "indexed": false,
          "internalType": "uint256",
          "name": "weiAmount",
          "type": "uint256"
        }
      ],
      "name": "DividendWithdrawn",
      "type": "event"
    },
    {
      "anonymous": false,
      "inputs": [
        {
          "indexed": true,
          "internalType": "address",
          "name": "from",
          "type": "address"
        },
        {
          "indexed": false,
          "internalType": "uint256",
          "name": "weiAmount",
          "type": "uint256"
        }
      ],
      "name": "DividendsDistributed",
      "type": "event"
    },
    {
      "anonymous": false,
      "inputs": [
        {
          "indexed": false,
          "internalType": "uint256",
          "name": "amount",
          "type": "uint256"
        },
        {
          "indexed": false,
          "internalType": "address",
          "name": "receiver",
          "type": "address"
        }
      ],
      "name": "TokensSentToSale",
      "type": "event"
    },
    {
      "anonymous": false,
      "inputs": [
        {
          "indexed": true,
          "internalType": "address",
          "name": "from",
          "type": "address"
        },
        {
          "indexed": true,
          "internalType": "address",
          "name": "to",
          "type": "address"
        },
        {
          "indexed": false,
          "internalType": "uint256",
          "name": "value",
          "type": "uint256"
        }
      ],
      "name": "Transfer",
      "type": "event"
    },
    {
      "inputs": [],
      "name": "activeTokens",
      "outputs": [
        {
          "internalType": "uint256",
          "name": "",
          "type": "uint256"
        }
      ],
      "stateMutability": "view",
      "type": "function",
      "constant": true
    },
    {
      "inputs": [
        {
          "internalType": "address",
          "name": "",
          "type": "address"
        }
      ],
      "name": "approvedCallers",
      "outputs": [
        {
          "internalType": "bool",
          "name": "",
          "type": "bool"
        }
      ],
      "stateMutability": "view",
      "type": "function",
      "constant": true
    },
    {
      "inputs": [],
      "name": "development",
      "outputs": [
        {
          "internalType": "address payable",
          "name": "",
          "type": "address"
        }
      ],
      "stateMutability": "view",
      "type": "function",
      "constant": true
    },
    {
      "inputs": [],
      "name": "owner",
      "outputs": [
        {
          "internalType": "address",
          "name": "",
          "type": "address"
        }
      ],
      "stateMutability": "view",
      "type": "function",
      "constant": true
    },
    {
      "stateMutability": "payable",
      "type": "receive",
      "payable": true
    },
    {
      "inputs": [
        {
          "internalType": "address",
          "name": "newOwner",
          "type": "address"
        }
      ],
      "name": "transferOwnership",
      "outputs": [],
      "stateMutability": "nonpayable",
      "type": "function"
    },
    {
      "inputs": [
        {
          "internalType": "address",
          "name": "caller",
          "type": "address"
        },
        {
          "internalType": "bool",
          "name": "status",
          "type": "bool"
        }
      ],
      "name": "updateApproval",
      "outputs": [],
      "stateMutability": "nonpayable",
      "type": "function"
    },
    {
      "inputs": [
        {
          "internalType": "address",
          "name": "sender",
          "type": "address"
        },
        {
          "internalType": "address",
          "name": "recipient",
          "type": "address"
        },
        {
          "internalType": "uint256",
          "name": "amount",
          "type": "uint256"
        }
      ],
      "name": "sendTransferFromToSale",
      "outputs": [
        {
          "internalType": "bool",
          "name": "",
          "type": "bool"
        }
      ],
      "stateMutability": "nonpayable",
      "type": "function"
    },
    {
      "inputs": [],
      "name": "distributeDividends",
      "outputs": [],
      "stateMutability": "payable",
      "type": "function",
      "payable": true
    },
    {
      "inputs": [],
      "name": "withdrawDividends",
      "outputs": [],
      "stateMutability": "nonpayable",
      "type": "function"
    },
    {
      "inputs": [
        {
          "internalType": "address",
          "name": "user",
          "type": "address"
        }
      ],
      "name": "withdrawableDividendOf",
      "outputs": [
        {
          "internalType": "uint256",
          "name": "",
          "type": "uint256"
        }
      ],
      "stateMutability": "view",
      "type": "function",
      "constant": true
    },
    {
      "inputs": [
        {
          "internalType": "address",
          "name": "user",
          "type": "address"
        }
      ],
      "name": "accumulativeDividendOf",
      "outputs": [
        {
          "internalType": "uint256",
          "name": "",
          "type": "uint256"
        }
      ],
      "stateMutability": "view",
      "type": "function",
      "constant": true
    },
    {
      "inputs": [
        {
          "internalType": "address",
          "name": "user",
          "type": "address"
        }
      ],
      "name": "withdrawnDividendOf",
      "outputs": [
        {
          "internalType": "uint256",
          "name": "",
          "type": "uint256"
        }
      ],
      "stateMutability": "view",
      "type": "function",
      "constant": true
    },
    {
      "inputs": [],
      "name": "name",
      "outputs": [
        {
          "internalType": "string",
          "name": "",
          "type": "string"
        }
      ],
      "stateMutability": "view",
      "type": "function",
      "constant": true
    },
    {
      "inputs": [],
      "name": "symbol",
      "outputs": [
        {
          "internalType": "string",
          "name": "",
          "type": "string"
        }
      ],
      "stateMutability": "view",
      "type": "function",
      "constant": true
    },
    {
      "inputs": [],
      "name": "decimals",
      "outputs": [
        {
          "internalType": "uint256",
          "name": "",
          "type": "uint256"
        }
      ],
      "stateMutability": "view",
      "type": "function",
      "constant": true
    },
    {
      "inputs": [],
      "name": "totalSupply",
      "outputs": [
        {
          "internalType": "uint256",
          "name": "",
          "type": "uint256"
        }
      ],
      "stateMutability": "view",
      "type": "function",
      "constant": true
    },
    {
      "inputs": [
        {
          "internalType": "address",
          "name": "account",
          "type": "address"
        }
      ],
      "name": "balanceOf",
      "outputs": [
        {
          "internalType": "uint256",
          "name": "",
          "type": "uint256"
        }
      ],
      "stateMutability": "view",
      "type": "function",
      "constant": true
    },
    {
      "inputs": [
        {
          "internalType": "address",
          "name": "recipient",
          "type": "address"
        },
        {
          "internalType": "uint256",
          "name": "amount",
          "type": "uint256"
        }
      ],
      "name": "transfer",
      "outputs": [
        {
          "internalType": "bool",
          "name": "",
          "type": "bool"
        }
      ],
      "stateMutability": "nonpayable",
      "type": "function"
    },
    {
      "inputs": [
        {
          "internalType": "address",
          "name": "user",
          "type": "address"
        },
        {
          "internalType": "address",
          "name": "spender",
          "type": "address"
        }
      ],
      "name": "allowance",
      "outputs": [
        {
          "internalType": "uint256",
          "name": "",
          "type": "uint256"
        }
      ],
      "stateMutability": "view",
      "type": "function",
      "constant": true
    },
    {
      "inputs": [
        {
          "internalType": "address",
          "name": "spender",
          "type": "address"
        },
        {
          "internalType": "uint256",
          "name": "amount",
          "type": "uint256"
        }
      ],
      "name": "approve",
      "outputs": [
        {
          "internalType": "bool",
          "name": "",
          "type": "bool"
        }
      ],
      "stateMutability": "nonpayable",
      "type": "function"
    },
    {
      "inputs": [
        {
          "internalType": "address",
          "name": "sender",
          "type": "address"
        },
        {
          "internalType": "address",
          "name": "recipient",
          "type": "address"
        },
        {
          "internalType": "uint256",
          "name": "amount",
          "type": "uint256"
        }
      ],
      "name": "transferFrom",
      "outputs": [
        {
          "internalType": "bool",
          "name": "",
          "type": "bool"
        }
      ],
      "stateMutability": "nonpayable",
      "type": "function"
    },
    {
      "inputs": [
        {
          "internalType": "address",
          "name": "spender",
          "type": "address"
        },
        {
          "internalType": "uint256",
          "name": "addedValue",
          "type": "uint256"
        }
      ],
      "name": "increaseAllowance",
      "outputs": [
        {
          "internalType": "bool",
          "name": "",
          "type": "bool"
        }
      ],
      "stateMutability": "nonpayable",
      "type": "function"
    },
    {
      "inputs": [
        {
          "internalType": "address",
          "name": "spender",
          "type": "address"
        },
        {
          "internalType": "uint256",
          "name": "subtractedValue",
          "type": "uint256"
        }
      ],
      "name": "decreaseAllowance",
      "outputs": [
        {
          "internalType": "bool",
          "name": "",
          "type": "bool"
        }
      ],
      "stateMutability": "nonpayable",
      "type": "function"
    },
    {
      "inputs": [
        {
          "internalType": "address",
          "name": "_tokenAddress",
          "type": "address"
        },
        {
          "internalType": "address",
          "name": "_to",
          "type": "address"
        },
        {
          "internalType": "uint256",
          "name": "_amount",
          "type": "uint256"
        }
      ],
      "name": "retrieveAnyERC20",
      "outputs": [],
      "stateMutability": "nonpayable",
      "type": "function"
    }
  ],
  "bytecode": "0x608060405260006003553480156200001657600080fd5b5060405162001cb038038062001cb08339810160408190526200003991620002bb565b6040805180820190915260068082526529a2a1aa27a960d11b6020909201918252620000689160079162000215565b506040805180820190915260038082526253454360e81b6020909201918252620000959160089162000215565b5060126009819055600a8054336001600160a01b031991821681178355600b80549092166001600160a01b03861617909155620000ed929091620000da919062000351565b620000e79060646200040d565b620000f4565b5062000482565b6001600160a01b0382166200014f5760405162461bcd60e51b815260206004820152601f60248201527f45524332303a206d696e7420746f20746865207a65726f206164647265737300604482015260640160405180910390fd5b6200016b81600654620001fe60201b62000e141790919060201c565b6006556001600160a01b038216600090815260046020908152604090912054620001a091839062000e14620001fe821b17901c565b6001600160a01b0383166000818152600460205260408082209390935591519091907fddf252ad1be2c89b69c2b068fc378daa952ba7f163c4a11628f55a4df523b3ef90620001f29085815260200190565b60405180910390a35050565b60006200020c8284620002ed565b90505b92915050565b82805462000223906200042f565b90600052602060002090601f01602090048101928262000247576000855562000292565b82601f106200026257805160ff191683800117855562000292565b8280016001018555821562000292579182015b828111156200029257825182559160200191906001019062000275565b50620002a0929150620002a4565b5090565b5b80821115620002a05760008155600101620002a5565b600060208284031215620002ce57600080fd5b81516001600160a01b0381168114620002e657600080fd5b9392505050565b600082198211156200030357620003036200046c565b500190565b600181815b80851115620003495781600019048211156200032d576200032d6200046c565b808516156200033b57918102915b93841c93908002906200030d565b509250929050565b60006200020c83836000826200036a575060016200020f565b8162000379575060006200020f565b81600181146200039257600281146200039d57620003bd565b60019150506200020f565b60ff841115620003b157620003b16200046c565b50506001821b6200020f565b5060208310610133831016604e8410600b8410161715620003e2575081810a6200020f565b620003ee838362000308565b80600019048211156200040557620004056200046c565b029392505050565b60008160001904831182151516156200042a576200042a6200046c565b500290565b600181811c908216806200044457607f821691505b602082108114156200046657634e487b7160e01b600052602260045260246000fd5b50919050565b634e487b7160e01b600052601160045260246000fd5b61181e80620004926000396000f3fe60806040526004361061018f5760003560e01c80637b929c27116100d6578063a8b9d2401161007f578063c47ef87511610059578063c47ef875146104b9578063dd62ed3e146104cf578063f2fde38b1461052257600080fd5b8063a8b9d24014610436578063a9059cbb14610456578063aafd847a1461047657600080fd5b8063a00842a7116100b0578063a00842a7146103c6578063a457c2d7146103e6578063a71975af1461040657600080fd5b80637b929c27146103325780638da5cb5b1461038457806395d89b41146103b157600080fd5b806327ce014711610138578063395093511161011257806339509351146102af57806346a2896b146102cf57806370a08231146102ef57600080fd5b806327ce0147146102655780632e92abdd14610285578063313ce5671461029a57600080fd5b8063095ea7b311610169578063095ea7b3146101f657806318160ddd1461022657806323b872dd1461024557600080fd5b806303c83302146101a357806306fdde03146101ab57806307c383dd146101d657600080fd5b3661019e5761019c610542565b005b600080fd5b61019c610542565b3480156101b757600080fd5b506101c061063b565b6040516101cd91906114e2565b60405180910390f35b3480156101e257600080fd5b5061019c6101f1366004611464565b6106cd565b34801561020257600080fd5b5061021661021136600461149b565b6107b5565b60405190151581526020016101cd565b34801561023257600080fd5b506006545b6040519081526020016101cd565b34801561025157600080fd5b50610216610260366004611428565b6107cb565b34801561027157600080fd5b506102376102803660046113da565b610841565b34801561029157600080fd5b5061019c6108bd565b3480156102a657600080fd5b50600954610237565b3480156102bb57600080fd5b506102166102ca36600461149b565b6109d2565b3480156102db57600080fd5b506102166102ea366004611428565b610a15565b3480156102fb57600080fd5b5061023761030a3660046113da565b73ffffffffffffffffffffffffffffffffffffffff1660009081526004602052604090205490565b34801561033e57600080fd5b50600b5461035f9073ffffffffffffffffffffffffffffffffffffffff1681565b60405173ffffffffffffffffffffffffffffffffffffffff90911681526020016101cd565b34801561039057600080fd5b50600a5461035f9073ffffffffffffffffffffffffffffffffffffffff1681565b3480156103bd57600080fd5b506101c0610b15565b3480156103d257600080fd5b5061019c6103e1366004611428565b610b24565b3480156103f257600080fd5b5061021661040136600461149b565b610c39565b34801561041257600080fd5b506102166104213660046113da565b600c6020526000908152604090205460ff1681565b34801561044257600080fd5b506102376104513660046113da565b610c95565b34801561046257600080fd5b5061021661047136600461149b565b610cce565b34801561048257600080fd5b506102376104913660046113da565b73ffffffffffffffffffffffffffffffffffffffff1660009081526002602052604090205490565b3480156104c557600080fd5b5061023760035481565b3480156104db57600080fd5b506102376104ea3660046113f5565b73ffffffffffffffffffffffffffffffffffffffff918216600090815260056020908152604080832093909416825291909152205490565b34801561052e57600080fd5b5061019c61053d3660046113da565b610cdb565b3415610639576000606461055734601e61161c565b61056191906115e1565b61056b90346116cd565b600b5490915073ffffffffffffffffffffffffffffffffffffffff166108fc606461059734601e61161c565b6105a191906115e1565b6040518115909202916000818181858888f193505050501580156105c9573d6000803e3d6000fd5b506003546105ff906105ec83700100000000000000000000000000000000610e27565b6105f691906115e1565b60005490610e14565b60005560405181815233907fa493a9229478c3fcd73f66d2cdeb7f94fd0f341da924d1054236d784541165119060200160405180910390a2505b565b60606007805461064a906116e4565b80601f0160208091040260200160405190810160405280929190818152602001828054610676906116e4565b80156106c35780601f10610698576101008083540402835291602001916106c3565b820191906000526020600020905b8154815290600101906020018083116106a657829003601f168201915b5050505050905090565b600a5473ffffffffffffffffffffffffffffffffffffffff16331461075f5760405162461bcd60e51b815260206004820152602160248201527f4f6e6c79206f776e65722063616e2063616c6c20746869732066756e6374696f60448201527f6e0000000000000000000000000000000000000000000000000000000000000060648201526084015b60405180910390fd5b73ffffffffffffffffffffffffffffffffffffffff919091166000908152600c6020526040902080547fffffffffffffffffffffffffffffffffffffffffffffffffffffffffffffff0016911515919091179055565b60006107c2338484610e33565b50600192915050565b60006107d8848484610fb2565b61083784336108328560405180606001604052806028815260200161179c6028913973ffffffffffffffffffffffffffffffffffffffff8a16600090815260056020908152604080832033845290915290205491906112cc565b610e33565b5060019392505050565b73ffffffffffffffffffffffffffffffffffffffff811660009081526001602090815260408083205460049092528220548254700100000000000000000000000000000000926108ad926108a8926108a29161089d9190610e27565b6112f8565b90611308565b611346565b6108b791906115e1565b92915050565b600a5473ffffffffffffffffffffffffffffffffffffffff163314156109255760405162461bcd60e51b815260206004820152601d60248201527f4f776e65722063616e6e6f7420636c61696d206469766964656e6473210000006044820152606401610756565b600061093033610c95565b905080156109cf57336000908152600260205260409020546109529082610e14565b33600081815260026020526040908190209290925590517fee503bee2bb6a87e57bc57db795f98137327401a0e7b7ce42e37926cc1a9ca4d906109989084815260200190565b60405180910390a2604051339082156108fc029083906000818181858888f193505050501580156109cd573d6000803e3d6000fd5b505b50565b33600081815260056020908152604080832073ffffffffffffffffffffffffffffffffffffffff8716845290915281205490916107c29185906108329086610e14565b336000908152600c602052604081205460ff16610a9a5760405162461bcd60e51b815260206004820152602e60248201527f4f6e6c7920617070726f7665642063616c6c6572732063616e20696e766f6b6560448201527f20746869732066756e6374696f6e0000000000000000000000000000000000006064820152608401610756565b610aa58484846107cb565b508160036000828254610ab891906115c9565b90915550506040805183815273ffffffffffffffffffffffffffffffffffffffff851660208201527fd0265a96368b048663f0bf36ee4c724d7e6cd4f65e708ba658a03b34fb30886f910160405180910390a15060019392505050565b60606008805461064a906116e4565b600a5473ffffffffffffffffffffffffffffffffffffffff163314610b8b5760405162461bcd60e51b815260206004820181905260248201527f4f776e61626c653a2063616c6c6572206973206e6f7420746865206f776e65726044820152606401610756565b6040517fa9059cbb00000000000000000000000000000000000000000000000000000000815273ffffffffffffffffffffffffffffffffffffffff83811660048301526024820183905284169063a9059cbb90604401602060405180830381600087803b158015610bfb57600080fd5b505af1158015610c0f573d6000803e3d6000fd5b505050506040513d601f19601f82011682018060405250810190610c3391906114c5565b50505050565b60006107c23384610832856040518060600160405280602581526020016117c46025913933600090815260056020908152604080832073ffffffffffffffffffffffffffffffffffffffff8d16845290915290205491906112cc565b73ffffffffffffffffffffffffffffffffffffffff81166000908152600260205260408120546108b790610cc884610841565b90611359565b60006107c2338484610fb2565b600a5473ffffffffffffffffffffffffffffffffffffffff163314610d425760405162461bcd60e51b815260206004820152600a60248201527f4f6e6c79206f776e6572000000000000000000000000000000000000000000006044820152606401610756565b73ffffffffffffffffffffffffffffffffffffffff8116610da55760405162461bcd60e51b815260206004820152601660248201527f43616e6e6f742073657420656d707479206f776e6572000000000000000000006044820152606401610756565b600a805473ffffffffffffffffffffffffffffffffffffffff9081166000908152600460205260408082205494831680835281832095909555835490921681529081205580547fffffffffffffffffffffffff0000000000000000000000000000000000000000169091179055565b6000610e2082846115c9565b9392505050565b6000610e20828461161c565b73ffffffffffffffffffffffffffffffffffffffff8316610ebb5760405162461bcd60e51b8152602060048201526024808201527f45524332303a20617070726f76652066726f6d20746865207a65726f2061646460448201527f72657373000000000000000000000000000000000000000000000000000000006064820152608401610756565b73ffffffffffffffffffffffffffffffffffffffff8216610f445760405162461bcd60e51b815260206004820152602260248201527f45524332303a20617070726f766520746f20746865207a65726f20616464726560448201527f73730000000000000000000000000000000000000000000000000000000000006064820152608401610756565b73ffffffffffffffffffffffffffffffffffffffff83811660008181526005602090815260408083209487168084529482529182902085905590518481527f8c5be1e5ebec7d5bd14f71427d1e84f3dd0314c0f7b2291e5b200ac8c7c3b925910160405180910390a3505050565b73ffffffffffffffffffffffffffffffffffffffff831661103b5760405162461bcd60e51b815260206004820152602560248201527f45524332303a207472616e736665722066726f6d20746865207a65726f20616460448201527f64726573730000000000000000000000000000000000000000000000000000006064820152608401610756565b600a5473ffffffffffffffffffffffffffffffffffffffff848116911614156110a65760405162461bcd60e51b815260206004820152601d60248201527f5573652073656e64546f6b656e73546f53616c652066756e6374696f6e0000006044820152606401610756565b73ffffffffffffffffffffffffffffffffffffffff821661112f5760405162461bcd60e51b815260206004820152602360248201527f45524332303a207472616e7366657220746f20746865207a65726f206164647260448201527f65737300000000000000000000000000000000000000000000000000000000006064820152608401610756565b611179816040518060600160405280602681526020016117766026913973ffffffffffffffffffffffffffffffffffffffff861660009081526004602052604090205491906112cc565b73ffffffffffffffffffffffffffffffffffffffff80851660009081526004602052604080822093909355908416815220546111b59082610e14565b73ffffffffffffffffffffffffffffffffffffffff831660009081526004602052604081209190915580546111ee9061089d9084610e27565b73ffffffffffffffffffffffffffffffffffffffff85166000908152600160205260409020549091506112219082611308565b73ffffffffffffffffffffffffffffffffffffffff808616600090815260016020526040808220939093559085168152205461125d9082611365565b73ffffffffffffffffffffffffffffffffffffffff80851660008181526001602052604090819020939093559151908616907fddf252ad1be2c89b69c2b068fc378daa952ba7f163c4a11628f55a4df523b3ef906112be9086815260200190565b60405180910390a350505050565b600081848411156112f05760405162461bcd60e51b815260040161075691906114e2565b505050900390565b600081818112156108b757600080fd5b6000806113158385611555565b9050600083121580156113285750838112155b8061133d575060008312801561133d57508381125b610e2057600080fd5b60008082121561135557600080fd5b5090565b6000610e2082846116cd565b600080821215801561138057508261137d8382611659565b13155b8061139e575060008212801561139e57508261139c8382611659565b135b6113a757600080fd5b610e208284611659565b803573ffffffffffffffffffffffffffffffffffffffff811681146113d557600080fd5b919050565b6000602082840312156113ec57600080fd5b610e20826113b1565b6000806040838503121561140857600080fd5b611411836113b1565b915061141f602084016113b1565b90509250929050565b60008060006060848603121561143d57600080fd5b611446846113b1565b9250611454602085016113b1565b9150604084013590509250925092565b6000806040838503121561147757600080fd5b611480836113b1565b9150602083013561149081611767565b809150509250929050565b600080604083850312156114ae57600080fd5b6114b7836113b1565b946020939093013593505050565b6000602082840312156114d757600080fd5b8151610e2081611767565b600060208083528351808285015260005b8181101561150f578581018301518582016040015282016114f3565b81811115611521576000604083870101525b50601f017fffffffffffffffffffffffffffffffffffffffffffffffffffffffffffffffe016929092016040019392505050565b6000808212827f7fffffffffffffffffffffffffffffffffffffffffffffffffffffffffffffff0384138115161561158f5761158f611738565b827f80000000000000000000000000000000000000000000000000000000000000000384128116156115c3576115c3611738565b50500190565b600082198211156115dc576115dc611738565b500190565b600082611617577f4e487b7100000000000000000000000000000000000000000000000000000000600052601260045260246000fd5b500490565b6000817fffffffffffffffffffffffffffffffffffffffffffffffffffffffffffffffff048311821515161561165457611654611738565b500290565b6000808312837f80000000000000000000000000000000000000000000000000000000000000000183128115161561169357611693611738565b837f7fffffffffffffffffffffffffffffffffffffffffffffffffffffffffffffff0183138116156116c7576116c7611738565b50500390565b6000828210156116df576116df611738565b500390565b600181811c908216806116f857607f821691505b60208210811415611732577f4e487b7100000000000000000000000000000000000000000000000000000000600052602260045260246000fd5b50919050565b7f4e487b7100000000000000000000000000000000000000000000000000000000600052601160045260246000fd5b80151581146109cf57600080fdfe45524332303a207472616e7366657220616d6f756e7420657863656564732062616c616e636545524332303a207472616e7366657220616d6f756e74206578636565647320616c6c6f77616e636545524332303a2064656372656173656420616c6c6f77616e63652062656c6f77207a65726fa264697066735822122073154450cffa899fb95ee9725b1ed232c77c409df59b1ad0ca31842be639ed3664736f6c63430008060033",
  "immutableReferences": {},
  "source": "// SPDX-License-Identifier: NONE\r\n\r\npragma solidity ^0.8.6;\r\n\r\nimport \"@openzeppelin/contracts/utils/math/SafeMath.sol\";\r\nimport \"./lib/SafeMathInt.sol\";\r\nimport \"@openzeppelin/contracts/token/ERC20/IERC20.sol\";\r\n\r\ncontract Sector is IERC20 {\r\n    using SafeMath for uint256;\r\n    using SafeMathInt for int256;\r\n    using SafeMathInt for uint256;\r\n    \r\n    uint256 constant internal magnitude = 2**128; // For calculating precise amount for small ether dividend\r\n    uint256 internal DividendPerShare; // Amount of dividend ether per share. Calculated according to decimals\r\n    mapping(address => int256) internal DividendCorrections; // To correct dividend while transferring\r\n    mapping(address => uint256) internal withdrawnDividends; // Keeps track of total withdrawn dividends\r\n    uint256 public activeTokens = 0;\r\n    \r\n    mapping (address => uint256) private _balances;\r\n    mapping (address => mapping (address => uint256)) private _allowances;\r\n    uint256 private _totalSupply;\r\n    string private _name;\r\n    string private _symbol;\r\n    uint256 private _decimals;\r\n    address public owner;\r\n    address payable public development;\r\n    \r\n    event DividendsDistributed(address indexed from, uint256 weiAmount);\r\n    event DividendWithdrawn(address indexed to, uint256 weiAmount);\r\n    event TokensSentToSale(uint amount,address receiver);\r\n    \r\n    function transferOwnership(address newOwner) external {\r\n        require(msg.sender == owner,\"Only owner\");\r\n        require(newOwner != address(0),\"Cannot set empty owner\");\r\n        _balances[newOwner] = _balances[owner];\r\n        _balances[owner] = 0;\r\n        owner = newOwner;\r\n    }\r\n  \r\n    constructor (address payable dev) {\r\n        _name = \"SECTOR\";\r\n        _symbol = \"SEC\";\r\n        _decimals = 18;\r\n        owner = msg.sender;\r\n        development = dev;\r\n        _mint(msg.sender,100*10**_decimals);\r\n    }\r\n    \r\n    receive() external payable {\r\n        distributeDividends();\r\n    }\r\n    \r\n    mapping(address => bool) public approvedCallers;\r\n\r\n    modifier onlyApproved() {\r\n        require(approvedCallers[msg.sender],\"Only approved callers can invoke this function\");\r\n        _;\r\n    }\r\n\r\n    function updateApproval(address caller,bool status) external {\r\n        require(msg.sender == owner,\"Only owner can call this function\");\r\n        approvedCallers[caller] = status;\r\n    }\r\n\r\n    // Function to utilize transferFrom to, send tokens to ICO/sale\r\n    function sendTransferFromToSale(address sender, address recipient, uint256 amount) external onlyApproved returns (bool) {\r\n        transferFrom(sender,recipient,amount);\r\n        activeTokens += amount;\r\n        emit TokensSentToSale(amount,recipient);\r\n        return true;\r\n    }\r\n    \r\n// Function to distribute dividends to token holders    \r\n    function distributeDividends() public payable {\r\n        if (msg.value > 0) {\r\n            uint256 divs = msg.value - (msg.value * 30) / 100;\r\n            development.transfer((msg.value * 30) / 100);\r\n            DividendPerShare = DividendPerShare.add((divs).mul(magnitude) / activeTokens);\r\n            emit DividendsDistributed(msg.sender, divs);\r\n        }\r\n    }\r\n    \r\n// Function to withdraw available dividends    \r\n    function withdrawDividends() public {\r\n        require(msg.sender != owner,\"Owner cannot claim dividends!\");\r\n        uint256 _withdrawableDividend = withdrawableDividendOf(msg.sender);\r\n        if (_withdrawableDividend > 0) {\r\n            withdrawnDividends[msg.sender] = withdrawnDividends[msg.sender].add(_withdrawableDividend);\r\n            emit DividendWithdrawn(msg.sender, _withdrawableDividend);\r\n            payable(msg.sender).transfer(_withdrawableDividend);\r\n        }\r\n    }\r\n    \r\n//----------- VIEWS ----------//    \r\n    \r\n// Available amount of dividend to withdraw    \r\n    function withdrawableDividendOf(address user) public view returns(uint256) {\r\n        return accumulativeDividendOf(user).sub(withdrawnDividends[user]);\r\n    }\r\n    \r\n// Amount of dividend an account earned in total    \r\n    function accumulativeDividendOf(address user) public view returns(uint256) {\r\n        return DividendPerShare.mul(balanceOf(user)).toInt256Safe().add(DividendCorrections[user]).toUint256Safe() / magnitude;\r\n    }\r\n\r\n// Total withdrawn amount of dividend of an account    \r\n    function withdrawnDividendOf(address user) public view returns(uint256) {\r\n        return withdrawnDividends[user];\r\n    }\r\n    \r\n//--------- TOKEN FUNCTIONS --------------//\r\n\r\n    function name() public view virtual returns (string memory) {\r\n        return _name;\r\n    }\r\n\r\n    function symbol() public view virtual returns (string memory) {\r\n        return _symbol;\r\n    }\r\n\r\n    function decimals() public view virtual returns (uint256) {\r\n        return _decimals;\r\n    }\r\n\r\n    function totalSupply() public view override virtual returns (uint256) {\r\n        return _totalSupply;\r\n    }\r\n\r\n    function balanceOf(address account) public view override returns (uint256) {\r\n        return _balances[account];\r\n    }\r\n\r\n    function transfer(address recipient, uint256 amount) public override returns (bool) {\r\n        _transfer(msg.sender, recipient, amount);\r\n        return true;\r\n    }\r\n\r\n    function allowance(address user, address spender) public view override returns (uint256) {\r\n        return _allowances[user][spender];\r\n    }\r\n\r\n    function approve(address spender, uint256 amount) public override returns (bool) {\r\n        _approve(msg.sender, spender, amount);\r\n        return true;\r\n    }\r\n\r\n    function transferFrom(address sender, address recipient, uint256 amount) public override returns (bool) {\r\n        _transfer(sender, recipient, amount);\r\n        _approve(sender, msg.sender, _allowances[sender][msg.sender].sub(amount, \"ERC20: transfer amount exceeds allowance\"));\r\n        return true;\r\n    }\r\n\r\n    function increaseAllowance(address spender, uint256 addedValue) public returns (bool) {\r\n        _approve(msg.sender, spender, _allowances[msg.sender][spender].add(addedValue));\r\n        return true;\r\n    }\r\n\r\n    function decreaseAllowance(address spender, uint256 subtractedValue) public returns (bool) {\r\n        _approve(msg.sender, spender, _allowances[msg.sender][spender].sub(subtractedValue, \"ERC20: decreased allowance below zero\"));\r\n        return true;\r\n    }\r\n\r\n    function _transfer(address sender, address recipient, uint256 amount) internal {\r\n        require(sender != address(0), \"ERC20: transfer from the zero address\");\r\n        require(sender != owner,\"Use sendTokensToSale function\");\r\n        require(recipient != address(0), \"ERC20: transfer to the zero address\");\r\n        \r\n        _balances[sender] = _balances[sender].sub(amount, \"ERC20: transfer amount exceeds balance\");\r\n        _balances[recipient] = _balances[recipient].add(amount);\r\n        \r\n        // Error correction while transferring token\r\n        int256 Correction = DividendPerShare.mul(amount).toInt256Safe();\r\n        DividendCorrections[sender] = DividendCorrections[sender].add(Correction);\r\n        DividendCorrections[recipient] = DividendCorrections[recipient].sub(Correction);\r\n        emit Transfer(sender, recipient, amount);\r\n    }\r\n\r\n    function _mint(address account, uint256 amount) internal {\r\n        require(account != address(0), \"ERC20: mint to the zero address\");\r\n\r\n        _totalSupply = _totalSupply.add(amount);\r\n        _balances[account] = _balances[account].add(amount);\r\n        emit Transfer(address(0), account, amount);\r\n    }\r\n\r\n    function _approve(address user, address spender, uint256 amount) internal {\r\n        require(user != address(0), \"ERC20: approve from the zero address\");\r\n        require(spender != address(0), \"ERC20: approve to the zero address\");\r\n\r\n        _allowances[user][spender] = amount;\r\n        emit Approval(user, spender, amount);\r\n    }\r\n\r\n    function retrieveAnyERC20(address _tokenAddress, address _to, uint _amount) public {\r\n        require(owner==msg.sender,\"Ownable: caller is not the owner\");\r\n        IERC20(_tokenAddress).transfer(_to, _amount);\r\n    }\r\n\r\n}",
  "sourcePath": "C:\\Users\\aceso\\Desktop\\Sector\\contracts\\SecToken4.sol",
  "compiler": {
    "name": "solc",
    "version": "0.8.6+commit.11564f7e.Emscripten.clang"
  },
  "schemaVersion": "3.4.2",
  "updatedAt": "2021-09-06T18:16:02.022Z",
  "networkType": "ethereum",
  "devdoc": {
    "kind": "dev",
    "methods": {
      "approve(address,uint256)": {
        "details": "Sets `amount` as the allowance of `spender` over the caller's tokens. Returns a boolean value indicating whether the operation succeeded. IMPORTANT: Beware that changing an allowance with this method brings the risk that someone may use both the old and the new allowance by unfortunate transaction ordering. One possible solution to mitigate this race condition is to first reduce the spender's allowance to 0 and set the desired value afterwards: https://github.com/ethereum/EIPs/issues/20#issuecomment-263524729 Emits an {Approval} event."
      },
      "balanceOf(address)": {
        "details": "Returns the amount of tokens owned by `account`."
      },
      "totalSupply()": {
        "details": "Returns the amount of tokens in existence."
      },
      "transfer(address,uint256)": {
        "details": "Moves `amount` tokens from the caller's account to `recipient`. Returns a boolean value indicating whether the operation succeeded. Emits a {Transfer} event."
      },
      "transferFrom(address,address,uint256)": {
        "details": "Moves `amount` tokens from `sender` to `recipient` using the allowance mechanism. `amount` is then deducted from the caller's allowance. Returns a boolean value indicating whether the operation succeeded. Emits a {Transfer} event."
      }
    },
    "version": 1
  },
  "userdoc": {
    "kind": "user",
    "methods": {},
    "version": 1
  }
}